{
  "contractName": "Escrow",
  "abi": [
    {
      "constant": true,
      "inputs": [],
      "name": "seller",
      "outputs": [
        {
          "name": "",
          "type": "address"
        }
      ],
      "payable": false,
      "stateMutability": "view",
      "type": "function"
    },
    {
      "constant": true,
      "inputs": [],
      "name": "refundCount",
      "outputs": [
        {
          "name": "",
          "type": "uint256"
        }
      ],
      "payable": false,
      "stateMutability": "view",
      "type": "function"
    },
    {
      "constant": true,
      "inputs": [],
      "name": "buyer",
      "outputs": [
        {
          "name": "",
          "type": "address"
        }
      ],
      "payable": false,
      "stateMutability": "view",
      "type": "function"
    },
    {
      "constant": true,
      "inputs": [],
      "name": "owner",
      "outputs": [
        {
          "name": "",
          "type": "address"
        }
      ],
      "payable": false,
      "stateMutability": "view",
      "type": "function"
    },
    {
      "constant": true,
      "inputs": [],
      "name": "amount",
      "outputs": [
        {
          "name": "",
          "type": "uint256"
        }
      ],
      "payable": false,
      "stateMutability": "view",
      "type": "function"
    },
    {
      "constant": true,
      "inputs": [],
      "name": "releaseCount",
      "outputs": [
        {
          "name": "",
          "type": "uint256"
        }
      ],
      "payable": false,
      "stateMutability": "view",
      "type": "function"
    },
    {
      "constant": true,
      "inputs": [],
      "name": "productId",
      "outputs": [
        {
          "name": "",
          "type": "uint256"
        }
      ],
      "payable": false,
      "stateMutability": "view",
      "type": "function"
    },
    {
      "constant": true,
      "inputs": [],
      "name": "fundsDisbursed",
      "outputs": [
        {
          "name": "",
          "type": "bool"
        }
      ],
      "payable": false,
      "stateMutability": "view",
      "type": "function"
    },
    {
      "constant": true,
      "inputs": [],
      "name": "arbiter",
      "outputs": [
        {
          "name": "",
          "type": "address"
        }
      ],
      "payable": false,
      "stateMutability": "view",
      "type": "function"
    },
    {
      "inputs": [
        {
          "name": "_productId",
          "type": "uint256"
        },
        {
          "name": "_buyer",
          "type": "address"
        },
        {
          "name": "_seller",
          "type": "address"
        },
        {
          "name": "_arbiter",
          "type": "address"
        }
      ],
      "payable": true,
      "stateMutability": "payable",
      "type": "constructor"
    },
    {
      "constant": true,
      "inputs": [],
      "name": "escrowInfo",
      "outputs": [
        {
          "name": "",
          "type": "address"
        },
        {
          "name": "",
          "type": "address"
        },
        {
          "name": "",
          "type": "address"
        },
        {
          "name": "",
          "type": "bool"
        },
        {
          "name": "",
          "type": "uint256"
        },
        {
          "name": "",
          "type": "uint256"
        }
      ],
      "payable": false,
      "stateMutability": "view",
      "type": "function"
    },
    {
      "constant": false,
      "inputs": [
        {
          "name": "caller",
          "type": "address"
        }
      ],
      "name": "releaseAmountToSeller",
      "outputs": [],
      "payable": false,
      "stateMutability": "nonpayable",
      "type": "function"
    },
    {
      "constant": false,
      "inputs": [
        {
          "name": "caller",
          "type": "address"
        }
      ],
      "name": "refundAmountToBuyer",
      "outputs": [],
      "payable": false,
      "stateMutability": "nonpayable",
      "type": "function"
    }
  ],
  "bytecode": "0x6080604052604051608080610d1b83398101806040528101908080519060200190929190805190602001909291908051906020019092919080519060200190929190505050826000806101000a81548173ffffffffffffffffffffffffffffffffffffffff021916908373ffffffffffffffffffffffffffffffffffffffff16021790555081600160006101000a81548173ffffffffffffffffffffffffffffffffffffffff021916908373ffffffffffffffffffffffffffffffffffffffff16021790555080600260006101000a81548173ffffffffffffffffffffffffffffffffffffffff021916908373ffffffffffffffffffffffffffffffffffffffff1602179055506000600960006101000a81548160ff0219169083151502179055503460048190555033600960016101000a81548173ffffffffffffffffffffffffffffffffffffffff021916908373ffffffffffffffffffffffffffffffffffffffff1602179055508360038190555050505050610b98806101836000396000f3006080604052600436106100ba576000357c0100000000000000000000000000000000000000000000000000000000900463ffffffff16806308551a53146100bf5780630bda4dbf1461011657806358aad10b146101415780637150d8ae146101845780638da5cb5b146101db578063a97d1b1014610232578063aa8c217c14610275578063b8d08db2146102a0578063c5ce3911146102cb578063d1a52e30146102f6578063f3d2590414610325578063fe25e00a146103fb575b600080fd5b3480156100cb57600080fd5b506100d4610452565b604051808273ffffffffffffffffffffffffffffffffffffffff1673ffffffffffffffffffffffffffffffffffffffff16815260200191505060405180910390f35b34801561012257600080fd5b5061012b610478565b6040518082815260200191505060405180910390f35b34801561014d57600080fd5b50610182600480360381019080803573ffffffffffffffffffffffffffffffffffffffff16906020019092919050505061047e565b005b34801561019057600080fd5b5061019961075d565b604051808273ffffffffffffffffffffffffffffffffffffffff1673ffffffffffffffffffffffffffffffffffffffff16815260200191505060405180910390f35b3480156101e757600080fd5b506101f0610782565b604051808273ffffffffffffffffffffffffffffffffffffffff1673ffffffffffffffffffffffffffffffffffffffff16815260200191505060405180910390f35b34801561023e57600080fd5b50610273600480360381019080803573ffffffffffffffffffffffffffffffffffffffff1690602001909291905050506107a8565b005b34801561028157600080fd5b5061028a610a86565b6040518082815260200191505060405180910390f35b3480156102ac57600080fd5b506102b5610a8c565b6040518082815260200191505060405180910390f35b3480156102d757600080fd5b506102e0610a92565b6040518082815260200191505060405180910390f35b34801561030257600080fd5b5061030b610a98565b604051808215151515815260200191505060405180910390f35b34801561033157600080fd5b5061033a610aab565b604051808773ffffffffffffffffffffffffffffffffffffffff1673ffffffffffffffffffffffffffffffffffffffff1681526020018673ffffffffffffffffffffffffffffffffffffffff1673ffffffffffffffffffffffffffffffffffffffff1681526020018573ffffffffffffffffffffffffffffffffffffffff1673ffffffffffffffffffffffffffffffffffffffff16815260200184151515158152602001838152602001828152602001965050505050505060405180910390f35b34801561040757600080fd5b50610410610b46565b604051808273ffffffffffffffffffffffffffffffffffffffff1673ffffffffffffffffffffffffffffffffffffffff16815260200191505060405180910390f35b600160009054906101000a900473ffffffffffffffffffffffffffffffffffffffff1681565b60085481565b60001515600960009054906101000a900460ff1615151415156104a057600080fd5b600960019054906101000a900473ffffffffffffffffffffffffffffffffffffffff1673ffffffffffffffffffffffffffffffffffffffff163373ffffffffffffffffffffffffffffffffffffffff161415156104fc57600080fd5b6000809054906101000a900473ffffffffffffffffffffffffffffffffffffffff1673ffffffffffffffffffffffffffffffffffffffff168173ffffffffffffffffffffffffffffffffffffffff1614806105a45750600160009054906101000a900473ffffffffffffffffffffffffffffffffffffffff1673ffffffffffffffffffffffffffffffffffffffff168173ffffffffffffffffffffffffffffffffffffffff16145b806105fc5750600260009054906101000a900473ffffffffffffffffffffffffffffffffffffffff1673ffffffffffffffffffffffffffffffffffffffff168173ffffffffffffffffffffffffffffffffffffffff16145b8015610659575060011515600560008373ffffffffffffffffffffffffffffffffffffffff1673ffffffffffffffffffffffffffffffffffffffff16815260200190815260200160002060009054906101000a900460ff16151514155b156106c8576001600560008373ffffffffffffffffffffffffffffffffffffffff1673ffffffffffffffffffffffffffffffffffffffff16815260200190815260200160002060006101000a81548160ff02191690831515021790555060016007600082825401925050819055505b6002600754141561075a57600160009054906101000a900473ffffffffffffffffffffffffffffffffffffffff1673ffffffffffffffffffffffffffffffffffffffff166108fc6004549081150290604051600060405180830381858888f1935050505015801561073d573d6000803e3d6000fd5b506001600960006101000a81548160ff0219169083151502179055505b50565b6000809054906101000a900473ffffffffffffffffffffffffffffffffffffffff1681565b600960019054906101000a900473ffffffffffffffffffffffffffffffffffffffff1681565b60001515600960009054906101000a900460ff1615151415156107ca57600080fd5b600960019054906101000a900473ffffffffffffffffffffffffffffffffffffffff1673ffffffffffffffffffffffffffffffffffffffff163373ffffffffffffffffffffffffffffffffffffffff1614151561082657600080fd5b6000809054906101000a900473ffffffffffffffffffffffffffffffffffffffff1673ffffffffffffffffffffffffffffffffffffffff168173ffffffffffffffffffffffffffffffffffffffff1614806108ce5750600160009054906101000a900473ffffffffffffffffffffffffffffffffffffffff1673ffffffffffffffffffffffffffffffffffffffff168173ffffffffffffffffffffffffffffffffffffffff16145b806109265750600260009054906101000a900473ffffffffffffffffffffffffffffffffffffffff1673ffffffffffffffffffffffffffffffffffffffff168173ffffffffffffffffffffffffffffffffffffffff16145b8015610983575060011515600660008373ffffffffffffffffffffffffffffffffffffffff1673ffffffffffffffffffffffffffffffffffffffff16815260200190815260200160002060009054906101000a900460ff16151514155b156109f2576001600660008373ffffffffffffffffffffffffffffffffffffffff1673ffffffffffffffffffffffffffffffffffffffff16815260200190815260200160002060006101000a81548160ff02191690831515021790555060016008600082825401925050819055505b60026008541415610a83576000809054906101000a900473ffffffffffffffffffffffffffffffffffffffff1673ffffffffffffffffffffffffffffffffffffffff166108fc6004549081150290604051600060405180830381858888f19350505050158015610a66573d6000803e3d6000fd5b506001600960006101000a81548160ff0219169083151502179055505b50565b60045481565b60075481565b60035481565b600960009054906101000a900460ff1681565b6000806000806000806000809054906101000a900473ffffffffffffffffffffffffffffffffffffffff16600160009054906101000a900473ffffffffffffffffffffffffffffffffffffffff16600260009054906101000a900473ffffffffffffffffffffffffffffffffffffffff16600960009054906101000a900460ff16600754600854955095509550955095509550909192939495565b600260009054906101000a900473ffffffffffffffffffffffffffffffffffffffff16815600a165627a7a7230582063e5777184fdaa9f600e0f615c4a83d65dbd8957703a0aeeb835ad209b8235e50029",
  "source": "/** Escrow contract will create 2 out of 3 multi-signature contract \n* acting as the decentralized arbiter between buyers and sellers\n* ensuring all conditions are met and transaction is done effectevelly.\n*\n*\n* Logic: the contract will store ether sent from the buyer\n* and needs two out of three votes to release amount to the seller\n* or it will refund amount back to the buyer\n* \n*/\n\npragma solidity ^0.4.23;\n\n\n/** @title Escrow contract for products sold. */\ncontract Escrow {\n    \n    // declare all global variables.\n    address public buyer;\n    address public seller;\n    address public arbiter;\n\n    // creates a escrow contract for each product sold.\n    uint public productId;\n    uint public amount;\n\n    // Keep tracking of who calls release or refund functions.\n    mapping(address => bool) releaseAmount;\n    mapping(address => bool) refundAmount;\n\n    // Keep tracking of voting counting, as it relies on 'two out of three voting' logic.\n    uint public releaseCount;\n    uint public refundCount;\n\n    // settles transaction.\n    bool public fundsDisbursed;\n\n    // Will restrict the access of the refund or release functions to the owner only.\n    address public owner;\n\n     /** Constructor that initiates an escrow contract each time the 'buyProduct' function is called.\n      * function marked as payable as it receives ether. \n      * @param _productId id of the product.\n      * @param _buyer address of the buyer.\n      * @param _seller address of the seller.\n      * @param _arbiter address of the arbiter, which is the last account provided by ganache-cli.\n      */ \n    constructor(uint _productId, address _buyer, address _seller, address _arbiter) payable public {\n        buyer = _buyer;\n        seller = _seller;\n        arbiter = _arbiter;\n        fundsDisbursed = false;\n        amount = msg.value;\n        // is whoever calls the 'buyProduc()' function and initiate the constructor.\n        owner = msg.sender; \n        productId = _productId;\n    }\n    \n    /** @dev Gets Scrow info of a contract.\n      * @return address Address of buyer.\n      * @return address Address of seller.\n      * @return address Address of arbiter.\n      * @return bool Boolean value of funds been disbursed.\n      * @return uint Tracks releaseCount values.\n      * @return uint Tracks refundCount values.\n      */\n    function escrowInfo() view public returns (address, address, address, bool, uint, uint) {\n        return (buyer, seller, arbiter, fundsDisbursed, releaseCount, refundCount);        \n    }\n    \n     \n    /** @dev Release amount to the seller if two out of three votes are true.\n      * @param caller of the voter.\n      */\n    function releaseAmountToSeller(address caller) public {\n        require(fundsDisbursed == false);\n        require(msg.sender == owner);\n        if ((caller == buyer || caller == seller || caller == arbiter) && releaseAmount[caller] != true) {\n            releaseAmount[caller] = true;\n            releaseCount += 1;\n        }\n        \n        if (releaseCount == 2) {\n            seller.transfer(amount);\n            // ends transaction\n            fundsDisbursed = true;\n        }\n    }\n    \n   /** @dev Release amount back to the seller if two out of three votes are true.\n      * @param caller of the voter.\n      */   \n    function refundAmountToBuyer(address caller) public {\n        require(fundsDisbursed == false);\n        require(msg.sender == owner);\n        if ((caller == buyer || caller == seller || caller == arbiter) && refundAmount[caller] != true) {\n            refundAmount[caller] = true;\n            refundCount += 1;\n        }\n        \n        if (refundCount == 2) {\n            buyer.transfer(amount);\n            fundsDisbursed = true;\n        }\n    }  \n    \n}\n",
  "sourcePath": "/Users/viviangalinari/Desktop/newcopy/mercado/contracts/Escrow.sol",
  "compiler": {
    "name": "solc",
    "version": "0.4.24+commit.e67f0147.Emscripten.clang"
  },
  "schemaVersion": "2.0.1",
  "updatedAt": "2018-08-22T15:16:57.523Z"
}